:020000040800F2
:10000000B03D002049010008D1210008031E00086E
:1000100039210008390F0008F13100080000000004
:10002000000000000000000000000000E9270008B8
:1000300065100008000000004D2600085529000842
:100040006301000863010008630100086301000800
:1000500063010008630100086301000863010008F0
:1000600063010008630100086301000863010008E0
:1000700063010008630100086301000863010008D0
:1000800063010008630100086301000863010008C0
:1000900063010008630100086301000863010008B0
:1000A00063010008630100086301000863010008A0
:1000B0006301000863010008A12B00086301000828
:1000C0006301000863010008630100086301000880
:1000D00063010008352D0008BD2D0008552E0008CD
:1000E0006301000863010008630100086301000860
:1000F0006301000863010008630100086301000850
:10010000630100086301000863010008630100083F
:10011000630100086301000863010008630100082F
:10012000630100086301000863010008630100081F
:10013000DFF810D000F0E4FD004800477D460008DD
:10014000AFF30080B03D00200648804706480047D6
:10015000FEE7FEE7FEE7FEE7FEE7FEE7FEE7FEE777
:10016000FEE7FEE75929000831010008A0F141012E
:10017000192900D82030704740EA01039B0703D0BB
:1001800009E008C9121F08C0042AFAD203E011F8D6
:10019000013B00F8013B521EF9D27047D2B201E098
:1001A00000F8012B491EFBD270470022F6E710B57C
:1001B00013460A4604461946FFF7F0FF204610BDD5
:1001C000421E12F8013F002BFBD111F8013B02F84F
:1001D000013B002BF9D1704730B505462A460B4646
:1001E00012F8010B13F8014B08B1A042F8D01CB172
:1001F000002802D06D1CF1E7284630BDCAB2401E6F
:1002000010F8011F8A4202D00029F9D1002070475E
:10021000421C10F8011B0029FBD1801A704710B551
:10022000002200E0521C835C8C5CA34201D1002BB5
:10023000F8D1D8B2E1B2401A10BD30B50546002061
:10024000034600E05B1C934205D2EC5CC85C201ABC
:1002500001D1002CF6D130BD2DE9FF4F087883B0D5
:100260009946FF2805D0491C2D2804D000240020E1
:1002700008E000200BE00124F9E700EB800003EB2D
:100280004000491C0B78FF2BF7D104B140420023FA
:100290000293147819461D462D2C01D02B2C04D125
:1002A000521C2D2C13D000240294AA461478FF2C43
:1002B0000FD00A25A3FB057801FB05814FF0000C48
:1002C00003FB0C11521CE3194AEB0101EEE7012478
:1002D000EAE7814453EA010002D019F5C87F06DA43
:1002E00003980021C0E9001107B0BDE8F08F002598
:1002F000AE4E2F46DFF8B882184600F0DCFCCDE9A0
:100300000001B9F1000002DAC9F1000400E004467E
:100310000023A74A1AEB030B42EB045A12E0E00752
:1003200007D02A4633463846414600F0ECF90746E6
:1003300088462A4633461046194600F0E4F9054639
:100340000E466410002CEAD1DDE90001B9F1000F7E
:100350005A46534606DA00F03FFC3A46434600F060
:100360003BFC05E000F0CFF93A46434600F0CBF9FC
:10037000029A0AB181F00041039AC2E90001B3E791
:100380002DE9FF4F1F468DB0D7E901464FF0FF38EA
:100390002E2045464FF000090B90B9696D1C0E9850
:1003A0008847396A824688470028F6D1BAF1FF3F6C
:1003B0000AD024F4D064002E11DDBAF12B0F08D03E
:1003C000BAF12D0F0BD102E0404611B08DE744F495
:1003D0008064B9696D1C0E9888478246761E69460E
:1003E000600501D52D2000E02B208DF8000001F1E3
:1003F000010B0DF1200809E0B9696D1C0E988847C2
:1004000082460F9844F40074761E0560002E02DDCB
:10041000BAF1300FF0D00B998A453ED144F08004F8
:1004200006E00F99681CA9F1010944F40074086002
:10043000B9696D1C761E0E98884782463028F0D028
:100440002BE00B998A4505D1200603D444F08004A3
:10045000761E18E0504603F0C3F908B30DF11301FE
:10046000761E44F400748B4508D2AAF130000BF8D4
:10047000010B200607D5A9F1010003E0200602D4F4
:1004800009F101008146A00502D50F99681C08609A
:10049000B9696D1C0E9888478246002ED1DC53E066
:1004A000002E51DDBAF1650F02D0BAF1450F4BD1E4
:1004B000A00549D5B9696D1C24F44074761E0E98C8
:1004C00088478246002E0CDD2B2804D0BAF12D0F70
:1004D00007D144F48074B9696D1C0E988847824630
:1004E000761EE00501D52D2100E02B2108F8011B27
:1004F000CDF82C8021E00DF12901761E44F4007422
:1005000088450CD2AAF1300010F0FF0088F80000F6
:1005100002D10B99884509D908F1010806E0E005E8
:1005200001D5244801E042F20F708146B9696D1C83
:100530000E98884782460F980560002E04DD5046CD
:1005400003F04EF90028D6D1F9690E988847FF20AC
:100550008BF8000088F800000020069007904B46BA
:100560006A4608A906A8FFF777FEA00502D46FF037
:1005700001002AE714F0240F0AD0E00714D1DDE9C6
:1005800006123868031D3B600068C0E900120BE0EA
:10059000DDE9060100F08AF90146E00704D1386878
:1005A000021D3A600068016028460EE70000144012
:1005B0000000F03FF1D8FFFF2DE9FE4F804681EAB1
:1005C0000300C00F0C46009021F0004123F00045CD
:1005D000B8EB0200A94105D24046214690461C4690
:1005E0000B46024623F00040104347D0270DC7F3C7
:1005F0000A00C3F30A510290401A019040286BDAB6
:10060000C3F3130040F4801B0098924620B10023EE
:10061000D2EB030A63EB0B0B01985946C0F1400281
:10062000504600F0A6F906460D4650465946019A36
:1006300000F0BEF910EB08006141002487EA115276
:1006400084EAE7731A4340D0009A62B3019A012A00
:100650004FEA075215DC001B61EB02014FF000422C
:1006600002EA0752CDE90042001C41F580113246F2
:100670002B4600F063FA03B0BDE8F08F40462146F8
:10068000F9E7001B61EB0201001C41F58013001823
:100690005B412018A2F5001747EB030140EAD57033
:1006A000B6196D4111E06D084FEA360645EAC0758E
:1006B0004FEA0752001B61EB0201001C41F580115B
:1006C00049084FEA30000019514132462B4603B029
:1006D000BDE8F04F00F023BA00980122400000234B
:1006E000D0EB020263EBE073009821464FEAE0741E
:1006F000B8EB000061EB0401E9E783F000435BE73E
:1007000081F0004158E72DE9FE4F81EA030404F02F
:10071000004421F0004100944FF0000B23F000430F
:1007200050EA01045ED052EA03045BD0C3F30A54DA
:10073000C1F30A552C44A4F2F3340194A0FB0254F3
:10074000C1F3130141F48011C3F3130343F4801385
:1007500001FB024400FB034E840A970A44EA8154D9
:1007600047EA8357A4FB076802958D0A05FB0785B6
:100770004FEA932C04FB0C542705029D4FEA0658C0
:1007800047EA1637B5EB08056EEB070C870E920E9D
:1007900047EA811742EA8312A7FB0201B6EB0B017D
:1007A00064EB00042B0D43EA0C335E1844EB1C5041
:1007B000DA465146E7FB0201C5F313044FEA0B3357
:1007C00043EA14534FEA0432019C43EA0603A4F1BE
:1007D0000C040294009CCDE900B400F0AFF903B022
:1007E000BDE8F08F00200146F9E70EB5C10F80EAA1
:1007F000E0700844CA07002140F233438DE80E0040
:100800000A460B4600F09AF903B000BD70B5C1F37B
:100810000A5201F000450024C1F3130140F2FF33F6
:1008200041F480119A4201DA002070BD40F2334356
:100830009A42A2F2334203DC524200F0A9F800E0EF
:1008400090402C43F1D0404270BD000030B5041EF2
:1008500071F1000404DB4FF00044404264EB0101FD
:10086000141E73F1000405DB1C464FF00043524296
:1008700063EB04038B4208BF824230BD30B5041ED7
:1008800071F1000404DB4FF00044404264EB0101CD
:10089000141E73F1000405DB1C464FF00043524266
:1008A00063EB0403994208BF904230BD01F000435E
:1008B00030B421F0004150EA010206D00A0DA2F541
:1008C0006072C1F31301002A02DC30BC00207047C3
:1008D000440F44EAC104C100E01830BC00EBC25030
:1008E00000F0E6B830B50B46014600202022012476
:1008F00009E021FA02F59D4205D303FA02F5491BEE
:1009000004FA02F52844151EA2F10102F1DC30BD03
:100910002DE9F05F0546002092469B468846064634
:10092000814640241BE0284641464746224600F0C7
:100930002FF853465A46C01A914110D31146184613
:10094000224600F016F82D1A67EB01084F462246A2
:100950000120002100F00DF817EB00094E41201E88
:10096000A4F10104DFDC484631462A464346BDE88F
:10097000F09F202A04DB203A00FA02F100207047A1
:100980009140C2F1200320FA03F3194390407047CD
:10099000202A04DB203A21FA02F00021704721FAD4
:1009A00002F3D040C2F1200291400843194670473B
:1009B000202A06DBCB17203A41FA02F043EAE07323
:1009C00006E041FA02F3D040C2F120029140084310
:1009D00019467047426842B1016811F8013B23B1E2
:1009E000521EC0E90012184670470121C160881EDE
:1009F000704742685AB1C368016843B983688B4243
:100A000005D0491E521CC0E90012002070474FF06B
:100A1000FF3070470FB4002300B589B00CA90091D6
:100A20000B996FF00042CB601E4B06931E4B079351
:100A30000423CDE901321D4A089202466B4600208C
:100A4000FFF79EFC09B05DF814FB70B586B0064652
:100A50004FF0FF300091CDE90101002015460C4612
:100A600004903246694604A8FFF7D4FF0246049872
:100A7000211825B108B1084600E0204628600498F6
:100A800000280DD0002A02DD0098884208D0081BFB
:100A90000094CDE901043246694604A8FFF7BAFF85
:100AA00006B070BDD5090008F3090008250D00083F
:100AB0000029A8BF7047401C490008BF20F0010072
:100AC000704710B4B0FA80FC00FA0CF050EA010450
:100AD00004BF10BC704749B1CCF1200421FA04F4E2
:100AE00011FA0CF118BF012121430843A3EB0C01BB
:100AF000CB1D4FEA00614FEA102042BF002010BC1E
:100B0000704700EBC35010440029A4BF10BC7047CD
:100B1000401C490008BF20F0010010BC704710B510
:100B2000141E73F1000408DA401C41F10001921810
:100B30005B411A4301D120F0010010BD2DE9F04DB9
:100B400092469B4611B1B1FA81F202E0B0FA80F20E
:100B500020329046FFF70DFF04460F4640EA0A0098
:100B600041EA0B0153465A46084313D0114653EA53
:100B7000010019D0C8F140025046FFF709FF0546B1
:100B80000E46504659464246FFF7F3FE084305D04D
:100B9000012004E020463946BDE8F08D00200543E1
:100BA00046EAE0762C4337430A986305E40AA0EB53
:100BB00008000022FD0A44EA47540A3002D500200A
:100BC0000146E9E7010510196941DDE90845001909
:100BD0006941BDE8F04DA2E72DE9F04D81EA03043B
:100BE00004F0004B21F0004514464FF0000A23F0BA
:100BF000004150EA050220D054EA01021DD0C5F39D
:100C00000A570246C5F31303C1F31300C1F30A5692
:100C100040F4801543F48013A7EB0608101BD6465A
:100C200008F2FD3873EB050002D308F1010801E07A
:100C300092185B41B8F1000F03DA00200146BDE8CD
:100C4000F08D00204FF48011064684460EE0171BFD
:100C500073EB050705D3121B63EB050306434CEA50
:100C6000010C49084FEA300092185B4150EA010735
:100C7000EDD152EA030012D082EA040083EA0501B2
:100C8000084305D0101BAB4106D20122002306E029
:100C900000224FF0004302E06FF0010253101AEB04
:100CA00006004CEB085110EB0A0041EB0B01BDE8CC
:100CB000F04DFFF734BF0EB540F2334202920022EE
:100CC000CDE900221346FFF739FF03B000BDC1F3A1
:100CD0000A52C1F3130140F2FF3341F480119A42EA
:100CE00002DA00200146704740F233439A42A2F2F2
:100CF000334202DC5242FFF74BBEFFF73ABE000020
:100D0000064C074D06E0E06840F0010394E8070058
:100D100098471034AC42F6D3FFF70EFA6C52000835
:100D20008C520008C0B24FF4F05100F017B870B503
:100D300021F0004303430CD0C1F30A550024D5EB46
:100D4000040564EB0403D617AD1AB34102DB00209F
:100D5000014670BD201841EB025170BD7F2801D9BA
:100D6000002208E0064A02EB5002C007127800D1C8
:100D7000120902F00F020120904008407047000065
:100D8000B851000870B58C1810F8015B15F0070316
:100D900001D110F8013B2A1106D110F8012B03E014
:100DA00010F8016B01F8016B5B1EF9D12B0705D41C
:100DB0000023521E0DD401F8013BFAE710F8013B65
:100DC000CB1A921C03E013F8015B01F8015B521E81
:100DD000F9D5A142D8D3002070BD000010B5544809
:100DE0004078002814D05248C079002811DD102125
:100DF000504800F037FD60B14D48C078012802D15D
:100E000000204B49C8704A48C079401E4849C87103
:100E10008DE04748C079002811DD4021454800F0A9
:100E200021FD60B14248C078012802D1022040492A
:100E3000C8703F48C079401E3D49C87177E03C48C2
:100E4000C07900280ADD20213A4800F00BFD28B1C6
:100E50003748C079401E3649C87168E03448C079C7
:100E6000002864D13248C07818B13148C0780228CF
:100E70001FD10021022001F069F82D48C0782C49CB
:100E800008710120C87010202A4914310860202000
:100E9000091F08604020091D0860800108604000AB
:100EA000091F08604000091D086003202049C8711F
:100EB0003DE01F48C078012839D11D48007910B1A4
:100EC000022832D118E010201A491431086020207D
:100ED00008604020091F0860800108604000091D6B
:100EE0000860400008600021032001F02FF810483E
:100EF00080790F49C87119E010200E49103108603F
:100F00002020091D08604020086080010860400022
:100F100008604000091F08600021012001F016F858
:100F2000034840790249C87100E000BF00BF10BD0E
:100F3000A02D0020000C014000BFFEE710B5C82125
:100F40000348FFF732F900200249088010BD000075
:100F5000E91A0020D209002010B5012001F042F862
:100F600004463CB12F48007820B92F480470012076
:100F70002C49087064B12B480078012808DB294807
:100F800000781E2804DC27480078401C254908709A
:100F9000002C2DD123480078002829DD2148007835
:100FA0001E2825DA20480078012802D0022819D10D
:100FB0000DE01EA002F04AFA1F48407818B1002048
:100FC0001D49487002E001201B4948700BE01BA03E
:100FD00002F03CFA1C48408A002802DD00201A4931
:100FE000488200E000BF00BF00200E49087018E0F2
:100FF000BCB90C4800781E2813DB0B480078012888
:1010000002D0022808D103E010A002F01FFA04E089
:1010100011A002F01BFA00E000BF00BF0020014950
:10102000087010BD180A0020190A00204B6579319C
:101030005F53686F72740A00A02D00204B657932EF
:101040005F53686F72740A00882D00204B657931F8
:101050005F4C6F6E670A00004B6579325F4C6F6EB4
:10106000670A00007047000010B54FF48071034814
:10107000FFF79BF800200249088010BD882400205B
:101080000C0A002070B50546002400BF00F022F8CD
:1010900078B90DA10E48FFF79FF804464CB17B21AB
:1010A0002046FFF7ABF804460CB1204670BD002087
:1010B000FCE7052003F034FA281EA5F101018DB2EA
:1010C000E4D100BFF2E700004D5452454356000002
:1010D000882400200A48008808B901207047084881
:1010E000008808490988884203D100200449088003
:1010F000F4E703480088034908800120EEE7000078
:101100000C0A00200E0A002010B5C0B004464FF4AF
:1011100080716846FFF749F828A0008820804FF4C6
:1011200080716846FFF741F82548C27825A16846D6
:1011300002F09CF969462046FFF742F84FF48071AF
:101140006846FFF732F82348428A23A1684602F036
:101150008DF969462046FFF733F84FF480716846F1
:10116000FFF723F8164842791EA1684602F07EF97F
:1011700069462046FFF724F84FF480716846FFF770
:1011800014F80F4882791BA1684602F06FF969468E
:101190002046FFF715F84FF480716846FFF705F811
:1011A00018A1684602F062F969462046FFF708F880
:1011B0002046FFF72DF8C0B240B010BD7B00000004
:1011C000A02D0020226C6967687431223A222564C0
:1011D000222C0000882D002022636172223A2225F1
:1011E00064222C0022525F54696D65223A222564E4
:1011F000222C000022475F54696D65223A22256443
:10120000220000007D00000000B5A1B0FA2003F02C
:1012100087F9FFF729FF4AA002F018F903E04FF41D
:10122000967003F07DF94FF4FA724CA14CA000F0D7
:101230004FF90028F3D14BA002F008F9802101A852
:10124000FEF7B3FF4DA101A802F010F903E04FF43F
:10125000967003F065F94FF4FA7240A101A800F00E
:1012600037F90028F3D14BA002F0F0F8802101A853
:10127000FEF79BFF4DA056A358A25BA1009001A8CA
:1012800002F0F4F803E04FF4967003F049F94FF4DC
:10129000FA7232A101A800F01BF90028F3D15BA07B
:1012A00002F0D4F8802101A8FEF77FFF40F25B73C3
:1012B0005AA266A101A802F0D9F803E04FF4967093
:1012C00003F02EF94FF4FA7224A101A800F000F9FE
:1012D0000028F3D162A002F0B9F8802101A8FEF73E
:1012E00064FF62A101A802F0C1F803E04FF4967018
:1012F00003F016F94FF4FA7218A101A800F0E8F80B
:101300000028F3D15FA002F0A1F8802101A8FEF728
:101310004CFF5FA266A101A802F0A8F803E04FF419
:10132000967003F0FDF84FF4FA720CA101A800F0DA
:10133000CFF80028F3D163A002F088F821B000BDF7
:10134000B2E2CAD4CDA8D0C5CAC7B7F1B3C9B9A64D
:101350002E2E2E202E2E2E0D0A0000004F4B0000A8
:1013600041540000C9E8D6C3CAFDBEDDC0E0D0CDFF
:101370002E2E202E2E2E0D0A0000000041542B4D43
:10138000544346473D22636C6F7564222C302C32E7
:101390002C310000C9E8D6C3C1B4BDD3B2CECAFD5A
:1013A0002E2E2E202E2E2E0D0A00000062393034F3
:1013B00039366138366361333238336661623839C1
:1013C0006665396363306630623433320000000092
:1013D000736D617274646576696365006839736AF8
:1013E00057594B506E4B410041542B4D5443464787
:1013F0003D22616C6961757468222C302C22257342
:10140000222C222573222C2225732200C1ACBDD3AD
:10141000B7FECEF1C6F70D0A00000000696F742D0B
:1014200030367A30306178646867666B32346E2E9D
:101430006D7174742E696F746875622E616C697950
:10144000756E63732E636F6D0000000041542B4D69
:10145000544F50454E3D302C222573222C256400DC
:10146000C1ACBDD3C9E8B1B80D0A000041542B4D41
:1014700054434F4E4E3D302C22616C696175746847
:1014800022200000B6A8D2E5D6F7CCE20D0A000073
:101490002F62726F6164636173742F6839736A5766
:1014A000594B506E4B412F7465737431000000002E
:1014B00041542B4D545355423D302C312C22257331
:1014C000222C300047413130204F4B0D0A000000E4
:1014D000F0B5C1B004460E461546224613A101A838
:1014E00001F0C4FF01A8FEF793FE87B2394601A8B8
:1014F00001F07EFF13E0FFF7EDFD68B90D490EA086
:1015000001F0A4FF31460B48FEF766FE20B1FFF75D
:10151000ABFD002041B0F0BD0A2003F001F8281E09
:10152000A5F101018DB2E6D10120F3E725730D0A83
:10153000000000008824002025730A00044900E010
:10154000521C11F8013B002BFAD1500870470000E3
:101550003009002010B50446062C22D2DFE804F042
:1015600003080D12171C0121084601F071F818E05C
:101570000121022001F06CF813E00121042001F0A8
:1015800067F80EE00121082001F062F809E001216E
:10159000102001F05DF804E00121202001F058F84E
:1015A00000BF00BF10BD70B504460D46164620466C
:1015B000FFF7D0FF32462946204600F05AF8204671
:1015C00000F001F870BD3EB50446204601F0A8FBCE
:1015D0000546062C33D2DFE804F0030B131B232A45
:1015E0004FF47A70ADF804004820ADF8000026E012
:1015F00040F2E730ADF804004720ADF800001EE0EF
:101600004FF47A70ADF804004820ADF8000016E001
:1016100040F2E630ADF804004620ADF800000EE0E0
:101620005920ADF804004F20ADF8000007E040F26B
:10163000E730ADF804004720ADF8000000BF00BF60
:101640000020ADF80600ADF802008DF808006946EC
:10165000284601F013FB0121284601F0E3FA01229C
:101660001146284601F001FB0021284601F0E0FA6E
:101670003EBDF8B506460C4615464FF4A06000F096
:10168000E1FD26B1012E06D0022E0CD107E01C2070
:101690008DF8000007E01D208DF8000003E01E20FB
:1016A0008DF8000000BF00BF8DF801408DF802509A
:1016B00001208DF80300684600F08CFDF8BD2DE98F
:1016C000F0410246002500260020002300240027C8
:1016D00091F803C00CF00F0591F803C00CF0100C4A
:1016E000BCF1000F03D091F802C04CEA050591F857
:1016F00000C0BCF1000F31D0146800202BE04FF087
:10170000010C0CFA00F3B1F800C00CEA03069E428B
:1017100020D183004FF00F0C0CFA03F7BC4305FAFD
:1017200003FC4CEA040491F803C0BCF1280F06D175
:101730004FF0010C0CFA00FCC2F814C00AE091F85A
:1017400003C0BCF1480F05D14FF0010C0CFA00FCAE
:10175000C2F810C0401C0828D1D31460B1F800C0F2
:10176000BCF1FF0F34DD546800202EE000F1080CBE
:101770004FF0010808FA0CF3B1F800C00CEA0306B8
:101780009E4221D183004FF00F0C0CFA03F7BC43AB
:1017900005FA03FC4CEA040491F803C0BCF1280FDD
:1017A00005D100F1080C08FA0CF8C2F8148091F881
:1017B00003C0BCF1480F07D100F1080C4FF001083D
:1017C00008FA0CF8C2F81080401C0828CED35460E8
:1017D000BDE8F081F0B50A46002300240021002571
:1017E00000F00046B6F1004F02D11D4EF16901E054
:1017F0001B4E7168C0F3034583B200F44016B6F582
:10180000401F08D121F07061154E766826F0706691
:10181000134F7E6012E000F48016B6F5801F06D1EB
:10182000032606FA05F4A14341F0706106E0460D77
:10183000360103FA06F6B14341F0706122B1460D5C
:10184000360103FA06F6314300F00046B6F1004FC8
:1018500002D1034EF16101E0014E7160F0BD000064
:10186000000001400246002093680B400BB10120AC
:1018700000E000207047416170470161704700003F
:1018800010B500200949086000F01CF90020084943
:10189000C1F8A00100F00EF801200449086000F032
:1018A00009F800200249C1F8A40110BDA481214219
:1018B0000080214210B5022002F058FE10BD000049
:1018C00008B50121082000F0E3FE4FF48070ADF868
:1018D000000003208DF8020010208DF803006946F7
:1018E0000B48FFF7ECFE4FF40070ADF8000003204A
:1018F0008DF8020010208DF8030069460448FFF7B8
:10190000DEFE0120034908600349C1F8A00108BDBB
:10191000000C0140A48121420080214210B500202A
:101920000949086000F0CEF801200849C1F8A0017B
:10193000FFF7C0FF012004490860FFF7BBFF00204C
:101940000249C1F8A40110BDA481214200802142B6
:1019500070B50546002400F0A1F8002614E0002030
:101960000E490860FFF7A6FF01200D49C1F8A40148
:101970006006040E09488438006808B1601CC4B2CF
:10198000FFF798FF701CC6B2082EE8DB15B9FFF709
:10199000C5FF01E0FFF774FF204670BDA48121421E
:1019A0000080214270B5044600F08CF800200D49FB
:1019B0000860002512E0E0090A49091F0860600676
:1019C000040E01200849C1F8A401FFF773FF0020AD
:1019D00004490860FFF76EFF681CC5B2082DEADBFA
:1019E00070BD0000A48121420080214210B500F0AA
:1019F00069F80120084908600849C1F8A401FFF707
:101A000059FF002004490860FFF754FF00200349F4
:101A1000C1F8A40110BD0000A08121420080214234
:101A200010B500F04FF80020074908600749C1F8D9
:101A3000A001FFF73FFF0120034908600349C1F8F7
:101A4000A001FFF737FF10BDA48121420080214291
:101A500010B5002400F022F801200E490860FFF7BD
:101A600029FF01200C49C1F8A401FFF723FF07E07B
:101A7000601CC4B2FA2C03DDFFF7D2FF012010BDB9
:101A80000448803800680028F2D10249091D086026
:101A900000BFF4E7A08121420080214208B5012166
:101AA000082000F0F5FD4FF48070ADF80000042030
:101AB0008DF8030069460248FFF701FE08BD0000EB
:101AC000000C014008B50121082000F0E1FD4FF4B1
:101AD0008070ADF8000003208DF8020010208DF812
:101AE000030069460148FFF7EAFD08BD000C01400C
:101AF0002DE9F04788B04FF0000A0CE00AF103002E
:101B0000C1B23C2000F036F904A921F81A000AF10C
:101B1000010000F0FF0ABAF1060FEFDBBDF812007A
:101B2000BDF8101040EA012000B21C490880BDF841
:101B30001600BDF8141040EA012000B21749488091
:101B4000BDF81A00BDF8181040EA012000B2134990
:101B50008880B1F90000FEF748FE06460F460F499F
:101B6000B1F90200FEF741FE32463B46CDE90001E5
:101B700002F0D6FA04460A4A0A4BFEF7C4FD804634
:101B80000022094BFEF718FDCDE90201FEF78EFE9B
:101B90000249886008B0BDE8F0870000B41B00204F
:101BA000775AF01ADCA54C400080664000B58FB033
:101BB000FFF786FE00213C2000F0DCF88DF82C00B9
:101BC00001213C2000F0D6F88DF82D0002213C20A8
:101BD00000F0D0F88DF82E0003213C2000F0CAF868
:101BE0008DF82F0004213C2000F0C4F88DF830005F
:101BF00005213C2000F0BEF88DF8310006213C2084
:101C000000F0B8F88DF8320007213C2000F0B2F85F
:101C10008DF8330008213C2000F0ACF88DF834003A
:101C200009213C2000F0A6F88DF835000A213C205F
:101C300000F0A0F88DF836000B213C2000F09AF857
:101C40008DF837000C213C2000F094F88DF8380016
:101C50009DF83600482807D19DF83700342803D175
:101C60009DF8380033282AD032A001F0EFFB9DF810
:101C700038009DF837109DF836209DF83530CDE9B5
:101C80000632CDE908109DF834009DF833209DF808
:101C900032109DF83130CDE90231CDE904209DF8B4
:101CA00030009DF82F10CDE900109DF82E309DF8E2
:101CB0002D209DF82C10274801F0C8FB38E026A005
:101CC00001F0C4FB9DF838009DF837109DF83620D0
:101CD0009DF83530CDE90632CDE908109DF8341075
:101CE0009DF833209DF832009DF83130CDE9023067
:101CF000CDE904219DF830009DF82F10CDE90010AA
:101D00009DF82E309DF82D209DF82C10114801F0E3
:101D10009DFB702200213C2000F050F82022012180
:101D20003C2000F04BF8002202213C2000F046F855
:101D30000FB000BD484D4335383833204932432079
:101D4000616363657373206661696C757265210DEB
:101D50000A00000018520008484D43353838332037
:101D600049324320616363657373204F4B210D0A31
:101D70000000000070B504460D46FFF737FE204610
:101D8000FFF710FEFFF764FE2846FFF70BFEFFF794
:101D90005FFEFFF72BFE611CC8B2FFF703FEFFF7E3
:101DA00057FE0020FFF7D4FD03490870FFF738FE07
:101DB0000148007870BD0000D709002070B50646C4
:101DC0000C461546FFF712FE3046FFF7EBFDFFF716
:101DD0003FFE18B1FFF724FE012070BD2046FFF73B
:101DE000E1FDFFF735FE2846FFF7DCFDFFF730FE8B
:101DF00018B1FFF715FE0120EFE7FFF711FE0020F5
:101E0000EBE700BFFEE7000010B54FF4A06000F064
:101E100019FAFFF793FB1B49086002F05FFB0122F0
:101E200000210220FFF7BFFB4FF4E13001F0E2F99F
:101E30004FF4165001F02EFA4FF4165001F082FACA
:101E400000F0BAFD00F026F900F006F900F020F8E5
:101E5000FFF736FDFFF7AAFE02E0052002F060FB67
:101E600009490A4800F0B7FC0128F6D100F078FAD9
:101E7000002000F030FA002000F03BFA00F026FAD3
:101E800010BD0000C4090020A02D0020100A002071
:101E900010B50021022000F059F81F2000F090F842
:101EA000642002F03DFB1F2000F08AF8642002F05D
:101EB00037FB1F2000F084F8642002F031FB10BDD6
:101EC0002DE9F04105460E462846FEF7A1F987B2F6
:101ED000012E1AD102211A48FFF7C4FCA8B92946DD
:101EE00018A001F0B3FA00240CE000BF402116480E
:101EF00001F03AF80028F9D0295D134801F001F902
:101F0000601C84B2BC42F0DD15E0A6B929460DA0E4
:101F100001F09CFA00240CE000BF40210A4801F0C7
:101F200023F80028F9D0295D074801F0EAF8601C81
:101F300084B2BC42F0DD0A2002F0F2FABDE8F08182
:101F40000008014025730A000044004030B585B008
:101F500004460D460A2C09DA224610A1684601F013
:101F600085FA29466846FFF7ABFF14E0642C09DACE
:101F700022460DA1684601F079FA29466846FFF726
:101F80009FFF08E022460BA1684601F06FFA294640
:101F90006846FFF795FF05B030BD000041373A3085
:101FA00030303025640D0A0041373A303030256436
:101FB0000D0A000041373A303025640D0A00000058
:101FC00010B586B00446224604A101A801F04EFADD
:101FD000002101A8FFF774FF06B010BD41463A2565
:101FE000640D0A0010B5044614B1012018490870A8
:101FF00017480078E0B108211648FFF733FC28B1F4
:102000004FF400411348FFF72DFC88B90020104918
:10201000087008210F48FFF725FC08B9012010BD02
:102020004FF400410B48FFF71DFC78B90220F6E79A
:1020300008210848FFF716FC012807D1C10305480D
:10204000FFF710FC012801D1014908700020E6E7E4
:102050001C000020000C014008B50121082000F000
:1020600017FB0820ADF8000048208DF803006946F2
:102070000748FFF724FB4FF40040ADF8000048206C
:102080008DF8030069460248FFF719FB08BD000000
:10209000000C014008B50121182000F0F9FA4FF4B6
:1020A0000050ADF8000010208DF8030003208DF8DB
:1020B000020069461E48FFF702FB1020ADF8000041
:1020C00069461C48FFF7FBFA2020ADF8000069467E
:1020D0001848FFF7F4FA4020ADF8000069461548AB
:1020E000FFF7EDFA4FF48050ADF800006946114853
:1020F000FFF7E5FA4FF40050ADF8000069460D48CF
:10210000FFF7DDFA4FF48040ADF80000694609485A
:10211000FFF7D5FA10210748FFF7AFFB202105484C
:10212000FFF7ABFB40210348FFF7A7FB08BD00000A
:1021300000100140000C014000BFFEE730B5ADF5D6
:102140000B7D044600254FF480714BA8FEF72DF857
:10215000012C04D14BA8FEF7D7FF054600E000BFD5
:1021600000BF95B14BAB0AA211A1684601F07EF900
:1021700003E04FF4967002F0D3F94FF4FA7213A112
:102180006846FFF7A5F90028F3D10DF50B7D30BDAA
:102190002F62726F6164636173742F6839736A5759
:1021A000594B506E4B412F74657374320000000020
:1021B00041542B4D545055423D302C302C302C3056
:1021C0002C222573222C2225732200004F4B000065
:1021D0007047000070B5002100230F22C47804B3BB
:1021E000154C246804F4E064C4F5E064210AC1F1EC
:1021F0000403CA40447804FA03F18478144021436C
:1022000009010E4C0678A155047804F01F0501243D
:10221000AC4005786D11AD0005F1E025C5F8004131
:1022200009E0047804F01F050124AC40044D067851
:10223000761145F8264070BD0CED00E000E400E0AA
:1022400080E100E002490143024A1160704700004A
:102250000000FA050CED00E000B58DB000F036F896
:1022600011A1684601F002F96A460021084600F013
:1022700003F911A1684601F0F9F86A46022100202D
:1022800000F0FAF808A1684601F0F0F86A46042167
:10229000002000F0F1F8FEF7B7FF3C200A49087073
:1022A00000F014F80DB000BD2D2D2D2D2D2D2D2D50
:1022B0002D2D2D2D2D2D2D002D2D2D4E65742042D3
:1022C0007265616B2D2D2D000000002010B50020DF
:1022D00000F025F810BD10B504461CB90021A62059
:1022E00000F07CF9012C03D10021A72000F076F941
:1022F00010BD10B504463CB90021C82000F06EF9AD
:102300000021A12000F06AF9012C07D10021C02092
:1023100000F064F90021A02000F060F910BD70B554
:102320000646002419E004F1B001C8B2002100F013
:1023300055F90021084600F051F90021102000F065
:102340004DF9002505E00121304600F047F9681CF1
:10235000C5B2822DF7DB601CC4B2082CE3DB70BD74
:1023600008B50121042000F093F9F020ADF8000039
:1023700010208DF8030003208DF8020069463D48C7
:10238000FFF79DF9F0213B48FFF777FA0021AE20D7
:1023900000F024F90021084600F020F90021102067
:1023A00000F01CF90021402000F018F900218120E4
:1023B00000F014F90021CF2000F010F90021A12035
:1023C00000F00CF90021C82000F008F90021A62037
:1023D00000F004F90021A82000F000F900213F20BE
:1023E00000F0FCF80021D32000F0F8F800210846A6
:1023F00000F0F4F80021D52000F0F0F80021802052
:1024000000F0ECF80021D92000F0E8F80021F120DC
:1024100000F0E4F80021DA2000F0E0F800211220BA
:1024200000F0DCF80021DB2000F0D8F8002140208B
:1024300000F0D4F80021202000F0D0F80021022084
:1024400000F0CCF800218D2000F0C8F80021142005
:1024500000F0C4F80021A42000F0C0F80021A6205C
:1024600000F0BCF80021AF2000F0B8F8FFF72EFF15
:1024700008BD0000000801402DE9F04707468846E6
:102480001646002584E03078A02845DD00253CE094
:10249000702F04DD002708F1020000F0FF083078FB
:1024A0003E4911F8151088422ED17078012101EBB8
:1024B00045013A4A515C884226D14146384600F0EF
:1024C00077F8002407E004EB4511354A505C012100
:1024D00000F084F8641C102CF5D308F10100C1B29F
:1024E000384600F065F8002408E004EB451110318F
:1024F0002B4A505C012100F071F8641C102CF4D3BD
:1025000007F11000C7B204E06D1C26480068854240
:10251000BED300BFB61C3BE07A2F04DD002708F1D4
:10252000020000F0FF0831781F48FDF767FE814682
:10253000B9F1000F2BD04146384600F039F800249D
:102540000AE099F80010203904EB0111174A505C99
:10255000012100F043F8641C082CF2D308F10100BB
:10256000C1B2384600F024F800240BE099F80010BE
:10257000203904EB011108310C4A505C012100F0B4
:102580002DF8641C082CF1D307F10800C7B2761CA3
:10259000307800287FF477AFBDE8F087300900205D
:1025A00010060020C409002063090020200000203C
:1025B00070B504460D4605F1B001C8B2002100F027
:1025C0000DF8102141EA1410002100F007F804F082
:1025D0000F00002100F002F870BD000070B5044645
:1025E0000E4626B120211848FFF747F903E02021C5
:1025F0001548FFF740F910211348FFF73CF9002573
:1026000017E080211048FFF736F904F0800020B170
:1026100040210D48FFF731F903E040210A48FFF758
:102620002AF980210848FFF728F96006040E681C83
:10263000C5B2082DE5DB10210348FFF71EF9202164
:102640000148FFF71AF970BD00080140704700000B
:1026500029B1064AD2690243044BDA6104E0034A15
:10266000D2698243014BDA617047000000100240DA
:1026700029B1064A12690243044B1A6104E0034A75
:1026800012698243014B1A6170470000001002403A
:1026900029B1064A92690243044B9A6104E0034A55
:1026A00092698243014B9A6170470000001002401A
:1026B00029B1064AD2680243044BDA6004E0034AB7
:1026C000D2688243014BDA6070470000001002407C
:1026D00030B500210022002400232D4D6D6805F047
:1026E0000C0121B1042905D0082923D105E0294D89
:1026F000056022E0274D05601FE0254D6D6805F45B
:102700007012234D6D6805F48034022505EB92426A
:102710001CB9214D554305600BE01D4D6D6805F456
:1027200000351DB11C4D5543056002E0194D554360
:10273000056002E0174D056000BF00BF144D6D68D5
:1027400005F0F0010909154D6B5C0568DD40456039
:102750000F4D6D6805F4E061090A104D6B5C45682A
:10276000DD4085600A4D6D6805F46051C90A0B4D66
:102770006B5C4568DD40C560054D6D6805F4404102
:10278000890B074D6B5CC568B5FBF3F5056130BD82
:102790000010024000127A0000093D00E20900200A
:1027A000F209002000B5012206490748006800F040
:1027B00019F901220349491C0448006800F012F984
:1027C00000BD0000A52D0020C8090020CC09002074
:1027D00001460120704770B505460C46FFF7E2FF41
:1027E0000320E071012070BD704710B500F002F8C1
:1027F00010BD00000CB50020019000903348006827
:1028000040F480303149086000BF3048006800F46F
:10281000003000900198401C0190009818B9019870
:10282000B0F5A06FF1D12948006800F4003010B174
:102830000120009001E0002000900098012843D181
:102840002348006840F010002149086008460068ED
:1028500020F0030008600846006840F002000860AD
:102860001A48406819494860084640684860084668
:10287000406840F4806048600846406820F47C105E
:1028800048600846406840F4E81048600846006820
:1028900040F08070086000BF0C48006800F00070D5
:1028A0000028F9D00948406820F003000749486033
:1028B0000846406840F00200486000BF0348406896
:1028C00000F00C000828F9D10CBD000000100240F7
:1028D0000020024010B501234FF47A720D490E48D2
:1028E00002F010FB01234FF4C8720C490C4802F0AF
:1028F00009FB012340F6AC520A490B4802F002FBE7
:10290000054802F02FFB064802F02CFB064802F0B7
:1029100029FB10BDBD4E000840120020C94E000822
:1029200050120020F14E000860120020042808D147
:102930004FF0E021096941F004014FF0E0221161FC
:1029400007E04FF0E021096921F004014FF0E02297
:10295000116170477047000010B51348006840F0DF
:1029600001001149086008464068104908400E49B6
:102970004860084600680E4908400B490860084650
:10298000006820F4802008600846406820F4FE00BB
:1029900048604FF41F008860FFF727FF4FF000608A
:1029A0000449086010BD0000001002400000FFF85C
:1029B000FFFFF6FE08ED00E010B501210820FFF74B
:1029C00067FE01210846FFF763FE01210348FEF779
:1029D00001FF01210248FEF7FDFE10BD000430009A
:1029E0000002300030B503460D480488B3F1006F93
:1029F00001D2012030BD4FF0006000EB84209842EE
:102A000001D20220F6E703E018780870491C5B1C2D
:102A1000101EA2F10105AAB2F6D100BFEAE700003C
:102A2000E0F7FF1F2DE9F84F8046894616465648C5
:102A3000B0F800A0A8F1006B4FEADB25CBF30A0049
:102A400000900098C0F50067B8F1006F02D2012035
:102A5000BDE8F88F4FF0006000EB8A20404501D2BE
:102A60000120F5E749484A4948604A484860BE4263
:102A700000DC37467DE0484802F03AFB08B102200E
:102A8000E6E74FF0006101EBC5200A144349FFF768
:102A9000A9FF414802F02CFB08B10220D8E73C48CE
:102AA000006940F002003A4908614FF0006000EB15
:102AB000C52048610846006940F04000086136487A
:102AC00002F016FB08B10220C2E73148006941F666
:102AD000FD7108402E490861002007E019F8002028
:102AE000009901442D4B5A54411C88B2B842F5DB81
:102AF00000242AE0284802F0FBFA08B10220A7E7E8
:102B00002348006940F0010021490861234810F87A
:102B10001400012101EB4401204A515C40EA0120EC
:102B20004FF0006101EBC52121F814001A4802F0B2
:102B3000DFFA08B102208BE71548006941F6FE7103
:102B4000084013490861601C84B2B4F5806FD1DB82
:102B5000B74200D10EE0B9446D1C00200090F01B7C
:102B600086B2B6F5006F02DD4FF4006000E030463B
:102B7000074680E700BF0648006940F0800004492E
:102B80000861002064E70000E0F7FF1F23016745AC
:102B900000200240AB89EFCD8888880070120020A9
:102BA00010B501211A4800F04FF878B319480068B1
:102BB000401C1849086002F0FDF916480068192108
:102BC000B0FBF1F201FB120010B9002012490870AD
:102BD000104800684FF47A71B0FBF1F201FB12006B
:102BE00080B900200B4908600C484078401C0B4914
:102BF00048700B480078002804DD09480078401E22
:102C0000074908700121024800F00FF810BD0000CC
:102C100000080040240A0020280A0020882D0020F7
:102C200000000020CA4302827047CA4302827047F4
:102C300021B1028842F00102028004E002884FF6CE
:102C4000FE731A400280704730B502460020002310
:102C50000024158A05EA0103958905EA010413B1E8
:102C60000CB1012000E0002030BD1AB183890B4374
:102C7000838102E083898B4383817047002202882D
:102C80001D4B98420ED01D4B98420BD0B0F1804F97
:102C900008D01B4B984205D01A4B984202D01A4BD1
:102CA000984204D14FF68F731A404B881A43174B42
:102CB000984207D0164B984204D04FF6FF431A4073
:102CC000CB881A4302808B8883850B8803850A4B47
:102CD00098420BD0094B984208D00E4B984205D031
:102CE0000D4B984202D00D4B984201D10B7A0386CE
:102CF0000123838270470000002C01400034014012
:102D00000004004000080040000C0040001000409B
:102D100000140040004001400044014000480140D0
:102D20000146022901D1024800BF00BF70470000E0
:102D30000008004010B540F225511D4800F021F96F
:102D400010B31B4800F0D8F9C4B21A48008800F448
:102D50000040C8B91748008800F4804060B10A2CD0
:102D600003D000201349088020E01248008840F476
:102D700000401049088019E00D2C06D10D4800884C
:102D800040F480400B49088010E00A480088C0F3F6
:102D90000D0009490C5407480088401C054908806B
:102DA00008460088C72801DD0020088010BD00000B
:102DB00000380140E0090020C01B002010B540F29F
:102DC0002551204800F0DDF8002839D01D4800F0DA
:102DD00093F9C4B2242C02D100201B4908801A4860
:102DE00001880088401C184A108018484454007814
:102DF00024281ED1154800794D281AD1134840794E
:102E0000432816D10A2C14D150211148FDF7CDF9D1
:102E10000D4802880D490E48FDF7AEF901200C4916
:102E200081F85000002008490880C8210748FDF7B4
:102E3000BCF905480088C82802DBC8200249088080
:102E400010BD000000440040D2090020E91A002013
:102E5000701A002010B540F225510E4800F091F88C
:102E6000B0B10D480088FF2802D900200A49088027
:102E70000848001D0088C1B2074802880088401C2D
:102E8000054B1880054881542021024800F008F8BD
:102E900010BD0000004800400C0A002088240020DB
:102EA00001F40072B2F5007F00D100BFCA43028076
:102EB000704721B1828942F40052828104E0828904
:102EC0004DF6FF731A4082817047000010B504462A
:102ED0002048844209D101218803FFF7E9FB002142
:102EE0004FF48040FFF7E4FB32E01B48844209D1F5
:102EF00001214804FFF7BCFB00214FF40030FFF72D
:102F0000B7FB25E01548844209D101218804FFF769
:102F1000AFFB00214FF48020FFF7AAFB18E0104818
:102F2000844209D10121C804FFF7A2FB00214FF41C
:102F30000020FFF79DFB0BE00A48844208D10121E5
:102F40000805FFF795FB00214FF48010FFF790FB79
:102F500010BD00000038014000440040004800401F
:102F6000004C00400050004002460020B1F5007FB8
:102F700000D100BF13880B400BB1012000E00020FE
:102F8000704770B50246002400230025002040F65B
:102F90006A16B14200D100BFC1F3421501F01F0310
:102FA000012606FA03F3012D02D19689334006E08B
:102FB000022D02D1168A334001E0968A33400C126A
:102FC000012606FA04F41688344013B10CB101202E
:102FD00000E0002070BDF0B5034600240026002567
:102FE000002040F66A17B94200D100BF1846C1F36D
:102FF000421401F01F06012707FA06F5012C01D142
:103000000C3004E0022C01D1103000E014301AB171
:1030100007682F43076002E00768AF430760F0BD11
:103020002DE9F04786B005460E460024A24600BFB3
:10303000A1460027B08900B100BF2F462C8A4CF66C
:10304000FF700440F08804432C82AC894EF6F310E4
:103050000440B08831890843718908430443AC8136
:10306000AC8A4FF6FF400440B0890443AC8201A80B
:10307000FFF72EFB1F48874202D1DDF810A001E0C8
:10308000DDF80CA0A88900F4004040B10AEBCA00AA
:1030900000EB0A1031684900B0FBF1F807E00AEBD9
:1030A000CA0000EB0A1031688900B0FBF1F8642017
:1030B000B8FBF0F004012009642101FB1089A88904
:1030C00000F4004040B1322000EBC900B0FBF1F049
:1030D00000F00700044308E0322000EB09106421EF
:1030E000B0FBF1F000F00F0004432C8106B0BDE806
:1030F000F08700000038014001468888C0F30800CE
:103100007047C1F3080282807047000010B5FEF7D7
:10311000EFFC1448B0F9000000280BDA1248007ADE
:1031200040B91248408A401C1049488201200E498B
:10313000087202E000200C4908720C48007878B14F
:103140000A480078012802D0022805D103E00120B6
:10315000FEF7F4FF00E000BF00BF00200349087045
:10316000012010BDB41B0020A02D0020882D0020C0
:1031700000B58DB01048428A10A1684600F076F97B
:103180006A4600211020FFF777F911A1684600F088
:103190006DF96A4602211020FFF76EF91048C279D6
:1031A00010A1684600F062F96A4605212D20FFF75C
:1031B00063F901200DB000BD882D0020B3B5C1F723
:1031C000C1BF3A20253033642020202000000000B9
:1031D000B5B1C7B0CAA3D3E0CAB1BCE42020200077
:1031E000A02D002020253032642053200000000054
:1031F00000BFFEE710B586B00446012144F204008A
:10320000FFF746FA4FF40070ADF8140003208DF874
:10321000160018208DF8170005A91C48FEF74FFA74
:103220004FF48060ADF8140004208DF8170005A954
:103230001648FEF744FA25208DF8000003208DF88B
:1032400001008DF8020001208DF803006846FEF7AA
:10325000C1FF01940020ADF80800ADF80A00ADF8F8
:103260000C00ADF810000C20ADF80E0001A90848C4
:10327000FFF7D6FE012240F225510548FFF7ABFECD
:1032800001210348FFF715FE06B010BD00080140FC
:103290000038014010B586B0044601210420FFF734
:1032A000F7F901214804FFF7D3F92448FFF70EFE90
:1032B0000420ADF8100003208DF8120018208DF8BE
:1032C000130004A91E48FEF7FAF90820ADF8100013
:1032D00004208DF8130004A91948FEF7F0F90094B2
:1032E0000020ADF80400ADF80600ADF80800ADF818
:1032F0000C000C20ADF80A0069461048FFF790FE5C
:1033000001210E48FFF7D5FD012240F225510B485F
:10331000FFF761FE26208DF8140002208DF81500BD
:1033200003208DF8160001208DF8170005A8FEF780
:1033300051FFFDF703FE06B010BD00000044004041
:103340000008014010B586B0044601210820FFF7AF
:103350009FF901218804FFF77BF918208DF81700E9
:103360004FF48060ADF8140003208DF8160005A915
:103370001D48FEF7A4F904208DF817004002ADF8AF
:10338000140003208DF8160005A91748FEF797F9D9
:1033900001940020ADF810000C20ADF80E000020C4
:1033A000ADF80C00ADF80A00ADF8080001A90F480F
:1033B000FFF736FE01210D48FFF77BFD012240F2A9
:1033C00025510A48FFF707FE27208DF8000001204D
:1033D0008DF803008DF801008DF802006846FEF7B5
:1033E000F9FE06B010BD0000000C0140004800408E
:1033F00070B504460D4600260DE014F8011B074881
:10340000FFF77FFE00BF40210448FFF7ADFD002815
:10341000F9D0701C86B2AE42EFDB70BD00480040B0
:1034200010B50122064907480068FFF7FBFA0122A0
:103430000349491C04480068FFF7F4FA10BD000076
:10344000A52D0020C8090020CC0900200FB4054B91
:1034500010B503A9044A029800F0CAF910BC5DF83F
:1034600014FB0000B9450008DC0900200FB4084B2C
:1034700010B504A902AA039800F0BAF9044602A9FB
:10348000002000F038FD204610BC5DF814FB000061
:10349000F73E0008490050EAC12018BF04204A0D39
:1034A00018BF40F0010040F2FF72B2EB515F08BF5D
:1034B00040F00200012808BF0520704730B528B150
:1034C000144C031F002021680A4605E0084630BD61
:1034D0009A4203D810465268002AF9D1002800D039
:1034E00041680BD00468A3EB0005A54204D11B681A
:1034F0001C440346046002E0436000E023603AB1EC
:103500001C68D51AA54203D115682C441C6052686A
:103510005A6030BD340A00202DE9F0414F1E00EB07
:10352000C7010446D1E9000115461E4637F00602E0
:103530000DD02A463346FDF7E6F87F1E04EBC7039D
:10354000D3E90023FDF738F837F00602F1D1022F56
:1035500025D0042F13D0062F18BFBDE8F0812A46CE
:103560003346FDF7D0F8D4E90A23FDF725F82A46BB
:103570003346FDF7C8F8D4E90823FDF71DF82A46BD
:103580003346FDF7C0F8D4E90623FDF715F82A46BF
:103590003346FDF7B8F8D4E90423FDF70DF82A46C1
:1035A0003346FDF7B0F8D4E90223FDF705F82A46C3
:1035B0003346FDF7A8F8D4E90023BDE8F041FCF755
:1035C000FBBF00002DE9F04782460F4C10480D4E1E
:1035D0000E4F001B4FF0000820F007054FF00109C7
:1035E00000221146504601F021F8002802D130682F
:1035F00010B10020BDE8F0873C60C4E90058C6F86F
:103600000090EDE7380A0020B42D0020340A002095
:10361000B03900200122FDF78ABBFCF7CDBF0000C6
:10362000024A00201107FDF782BB000001FDFFFFE9
:1036300002E008C8121F08C1002AFAD1704770477B
:10364000002001E001C1121F002AFBD170470000D9
:1036500001490860704700003C0A00202DE9FF5F27
:1036600082B00021DDE90430020DDDF840B00343F3
:1036700018D044F61050A2F2FF32424315141198AC
:1036800001281FD0A5EB0B00401C5FEA000A4FF099
:1036900000064E4FDFF83891B046504615D5CAF1B6
:1036A000000413E0119801244AA3012801D16FEA14
:1036B0000B010298119AC0E90031C0E9024206B03C
:1036C000BDE8F09FCBF10000DFE704460021404A4F
:1036D000491842EB0450CDE9001012E0E00707D092
:1036E00032463B4640464946FDF70DF8804689463E
:1036F00032463B4610461946FDF705F806460F468A
:103700006410002CEAD1DDE90401DDE90023BAF1FF
:10371000000F06DAFCF7F7FF42464B46FCF7F3FFD3
:1037200005E0FDF759FA42464B46FDF755FA0446C7
:103730000E460022284BFDF7A1F803D84FF0FF30CA
:10374000014607E00022254B20463146FCF734FFB6
:10375000FDF7BDFA102409E0002C0ADB0A22002341
:10376000FDF7D6F8039B30321A55641E50EA010269
:10377000F2D1641C039AC4F111031444119A012A72
:1037800003D0012208430DD10AE0084304D00020F1
:103790004FF0110B119072E7A3EB0B056D1E0DE0BE
:1037A0005B4504DD4FF0000205F1010504E003DA9A
:1037B0004FF00002A5F10105002AECD00298119902
:1037C000C0E90231C0E9004579E70000000014407B
:1037D0000000F03F300000000000F0430000E03F38
:1037E00030380A2801D201207047002070470000BD
:1037F0002DE9FF4F95B09A46884606460025EEE132
:10380000252877D100242746F94A0121039400E0B6
:10381000044316F8013F203B01FA03F01042F7D1B0
:1038200030782A2811D06FF02F033078A0F13002C1
:10383000092A16D8039A44F0020402EB820203EB31
:1038400042021044761C0390EFE758F8042B0392D1
:10385000002A03DA504244F40054039044F0020476
:10386000761C30782E2816D116F8010F44F0040487
:103870002A280DD06FF02F023078A0F13003092BE9
:1038800009D807EB870302EB4303C718761CF3E75D
:1038900058F8047B761C30786C280FD006DC4C2856
:1038A00017D068280DD06A2814D104E0742810D0ED
:1038B0007A280FD10DE044F400140AE044F4801497
:1038C00001E044F440147278824202D104F580147D
:1038D000761C761C307866280BD013DC582877D0FD
:1038E00009DC002875D04528F6D04628F4D04728B2
:1038F0001AD193E118E0632835D0642879D065287F
:1039000012D18BE1702873D008DC6728F1D06928C8
:103910006FD06E280DD06F2806D1ACE073282CD064
:10392000752874D0782853D05246179990476D1C4B
:1039300054E1C4F30250022809D003280DD0D8F86E
:10394000001004280DD00D6008F1040846E1D8F8F5
:103950000010EA17C1E90052F6E7D8F800100D8010
:10396000F2E70D70F0E718F8041B8DF80010002046
:103970008DF80100EB46012003E058F804BB4FF03E
:10398000FF3061074FF0000102D40DE009F10101A1
:103990008946B9420FDA8145F8DB1BF80910002986
:1039A000F4D108E009F1010189468142FADB1BF8F4
:1039B00009100029F6D103985346A0EB09072146C8
:1039C0003846179A00F080FA284400EB090507E012
:1039D00044E008E10DE01BF8010B524617999047AF
:1039E000B9F10109F7D2534621463846179AF2E059
:1039F00039E00A21C4F302524FF0000B0091022A71
:103A000006D058F8040BC117032A09D00AE023E0B6
:103A100008F1070020F00702F2E80201904605E0F5
:103A200000B2C117042A01D140B2C117002906DA39
:103A30000A460021404261EB02012D2202E02205EC
:103A400004D52B228DF80420012203E0E20701D0E7
:103A50002022F7E7914657E00A2100E010214FF0BD
:103A6000000B00910BE010214FF0000B44F0040418
:103A70000827009103E008204FF0000B0090C4F3EA
:103A80000252022A05D058F8040B0021032A08D05C
:103A900008E008F1070020F00702F2E80201904672
:103AA00003E080B2042A00D1C0B24FF0000922071F
:103AB0002AD53278702A07D0DDF800C08CF0100CBF
:103AC0005CEA0B0C05D00EE040228DF804200122A8
:103AD00008E050EA010306D030238DF804308DF859
:103AE000052002229146009B83F0080353EA0B0352
:103AF0000AD150EA010201D1620705D530228DF8C2
:103B000004204FF001097F1E3278582A04D039A2D0
:103B10000C920CAA02920BE03BA2F9E75B46009ADA
:103B2000FCF7F6FE0C9B9B5C029A521E02921370ED
:103B300050EA0102F2D1029804A9081A00F1200B00
:103B4000600702D524F4803400E001275F4502DDE0
:103B5000A7EB0B0000E0002000EB0B0100900398A6
:103B60004944401A0390E00306D453462146179A6D
:103B7000039800F0A9F90544002706E001A8524681
:103B8000C05D179990476D1C7F1C4F45F6DBE00325
:103B90000CD553462146179A039800F095F9054431
:103BA00004E030205246179990476D1C0099481E3A
:103BB00000900029F5DC08E002980299524600784E
:103BC000491C0291179990476D1CBBF10001ABF1A4
:103BD000010BF1DC5BE100F065F90544761C3078FF
:103BE00000287FF40DAE19B02846BDE8F08F000024
:103BF00009280100303132333435363738396162C3
:103C00006364656600000000303132333435363786
:103C1000383941424344454600000000600700D463
:103C2000062708F1070020F00700F0E8022380468D
:103C300003F0004C5FEA0C0001D097A009E02005DA
:103C400001D596A005E0E00701D095A001E0AFF214
:103C50004C001390307823F0004365280CD006DC2C
:103C6000452809D046281DD047287FD13BE066284B
:103C700018D067287AD136E00021112F01DB1120FE
:103C800000E0781CCDE9000104A90CA8FFF7E6FCD0
:103C9000DDE90D010C9A4FF0000B07F101091092BC
:103CA00000914EE04FF000400097CDE9011004A9CB
:103CB0000CA8FFF7D3FCDDE90D020C9B0F994FF028
:103CC000000B91461093009211B9791C00EB010989
:103CD000B7EB090003D4C0F1FF3B07F10109A9EBE1
:103CE0000700019042E0012F00DA01270021112F87
:103CF00001DD112000E03846CDE9000104A90CA83F
:103D0000FFF7ACFCDDE90D010C9A00914FF0000BC0
:103D1000B946109221070FD4009A4A4503DA91461A
:103D200001E0A9F10109B9F1010F05DD109AA9F12E
:103D30000101515C3029F4D0B84202DA10F1040FCD
:103D400003DA0121CDE9011010E0002803DC8344EF
:103D5000A9EB000102E0411C494500DD8946A0EBCA
:103D60000B00401C01904FF000400290200705D44A
:103D70000198484502DB4FF0FF30019000208DF89C
:103D80004B0002980DF14B07B0F1004F25D00220F7
:103D90000C902B200D90029800280CDA40420290E3
:103DA0002D200D9007E00A210298FCF79BFD303191
:103DB000029007F8011D0C99481E0C900029F2DCB6
:103DC00002980028EFD1791E0D980870307800F025
:103DD000200040F0450007F8020D11A8C01BC01DCF
:103DE00002901398007800B1012000EB09010198BE
:103DF00001EBE071029801440398401A401E0390C1
:103E0000E00306D453462146179A039800F05CF865
:103E100005441398007818B15246179990476D1CC5
:103E2000E00323D553462146179A039800F04CF837
:103E300005441BE0BBF1000F07DB0098584504DD8B
:103E40001098179910F80B0001E01799302052468E
:103E5000904701980BF1010B401E05F101050190FF
:103E600004D12E205246179990476D1CB9F10001DC
:103E7000A9F10109DEDC05E017F8010B524617999C
:103E800090476D1C0299481E02900029F4DC5346AD
:103E90002146179A03989EE62D0000002B00000093
:103EA000200000002DE9F041044600251E4617467B
:103EB000880404D405E039462020B0476D1C641EF8
:103EC000F9D52846BDE8F0812DE9F04104460025EA
:103ED0001E469046C80301D5302700E020278804FD
:103EE00004D505E041463846B0476D1C641EF9D53F
:103EF0002846BDE8F0810A68531C0B6010707047BB
:103F00002DE9F84F04460D4621F000400091734919
:103F1000814211DC7249884201DC06D12CB1204675
:103F20002946BDE8F84FFFF775BB6E48002DCCBFA2
:103F30006D496E49BDE8F88F6D49814211DD6D49CB
:103F40008142D8BF4FF0FF366DDD20462946FFF78E
:103F5000A1FA042808BFFFF763FB20462946BDE805
:103F6000F88F6549654F25F00045814233DD64498E
:103F7000814219DD002632464FF080432046294613
:103F8000FCF71AFB80468A46012220462946FCF7A8
:103F9000CEFE00223B46FCF7B0FB42465346FCF700
:103FA0001BFE04460D463EE001260022BA463B4673
:103FB00020462946FCF700FB80460F460022534668
:103FC00020462946FCF799FB42463B46FCF704FE97
:103FD00004460D4627E04B4981421BDDDFF828A14E
:103FE00002260022534620462946FCF78CFB00227D
:103FF0003B46FCF7E1FA80460F4600225346204636
:104000002946FCF77AFB42463B46FCF7E5FD0446B1
:104010000D4608E0032622462B4600203B49FCF7CC
:10402000DBFD04460D4622462B4610461946FCF79A
:104030006AFB8B46824602460B46FCF764FB07464A
:104040000246334888460B4606217844FFF764FA57
:1040500052465B46FCF757FB82462E488B463A4653
:10406000434605217844FFF757FA3A464346FCF7A2
:104070004AFB02460B46002E504659460CDAFCF726
:104080009BFA22462B46FCF73EFB01B022462B460C
:10409000BDE8F04FFCF734BBFCF78EFA22462B4606
:1040A000FCF731FB1C4A7A4402EBC603D3E9002338
:1040B000FCF723FB22462B46FCF71FFB174A7A44EA
:1040C00002EBC603D3E90023FCF71AFB009A002A8F
:1040D000B8BF81F00041BDE8F88F00000000104437
:1040E0000000F07F182D4454FB21F93FFB21F9BF5C
:1040F0000000DC3F0000203E0000F33F0000F03FE6
:104100000000E63F008003400000F83F0000F0BFE1
:1041100032110000F01000008E1000005610000058
:104120002DE9F04D9446CCF1000423F000464CEA12
:104130000404594F46EAD4749A46884621F0004256
:10414000BC4206D8454240EA050442EAD474BC4267
:1041500004D9BDE8F04D6246FFF75FBAAAF14055B9
:10416000A5F17F6555EA0C040BD0022404EAAA7479
:104170004A4DDFF82CE144EAD87452EA000B04D02F
:104180000CE0BDE8F04DFFF7BBBE002C14BF012CC6
:10419000BDE8F08D022C30D0032C32D056EA0C0B47
:1041A0000AD0BE4220D1BA4209D126F0804622F080
:1041B00080423346114617E000291ADB25E0DFF87C
:1041C000E4B0FB44002C04BFDBE90001BDE8F08D46
:1041D000012C02BFDBE9000181F00041BDE8F08D58
:1041E000022C0AD0032C0CD0BA4212D1B8F1000F25
:1041F0000BDA2A482C49BDE8F08D28462B49BDE84A
:10420000F08D28467146BDE8F08D24482849BDE868
:10421000F08D921B12153C2AC4BF204F244E10DC97
:10422000BAF1000FBEBF12F13C0F00273E4608DB7B
:104230006246FCF7D1FC21F00041FFF761FE074622
:104240000E4694B1012C08BF86F000460DD0194AE5
:10425000194B022C3846314615D0FCF74EFA2A4647
:10426000BDE8F04D114BFCF748BA00221346384622
:104270003146FCF7EBFA04BF0220FFF7E9F93846B4
:104280003146BDE8F08DFCF738FA2A46BDE8F04D1E
:10429000064BFCF735BA00000000F07F182D44549F
:1042A000FB2109C0EA0F0000FB21F9BFFB210940F7
:1042B000FB21F93F075C143326A6A13C014609B156
:1042C000086808B90020704719B1D1E9012090426F
:1042D00001D30846F7E702E08868401C886041B1D6
:1042E000D1E90120904204D28A680868805C2028C5
:1042F000F2DDD1E90120904202D18868401E886039
:104300000846E0E770B50446002522E02568A0894C
:1043100000F4807020B9A06810B1A068FFF7F2FF28
:10432000A08900F4807028B9206918B10A4A206970
:1043300051688847A08900F4007028B9206A18B134
:10434000054A206A516888470348416820468847E3
:104350002C46002CDAD170BD000A002070B504464E
:104360000D4600222946204600F036F970BD70B592
:10437000044628202168884705461DB12821284683
:10438000FBF713FF284670BD10B504460022114606
:10439000204600F06BF810BD2DE9F0478AB00446C6
:1043A0000E46154698461C2103A8FBF7FEFE002783
:1043B00000202C490860486004B106B932E003943B
:1043C000049600200590284A07CA07AB07C3264871
:1043D000FFF7CDFF074607B924E003A800F042FD30
:1043E0008246FFF76BFF81464946384600F066FC7F
:1043F00000B917E0B8F1000F0BD003A8FFF75EFF7C
:10440000DDE90410884203D205990398405C00B1AD
:1044100008E01DB1059903980844286038460AB0A1
:10442000BDE8F08717B13846FFF76CFFC4B10194BF
:1044300000200290DDE90410884202D20598029023
:1044400004E0049810B10498401E02901DB1DDE90B
:104450000101084428600348DDE9011206C000BFDD
:104460000020DCE7F8090020000A00202DE9F041D7
:1044700004460D46164614B90020BDE8F0812046DA
:10448000FBF7C6FE471C33462A4639462046FFF74F
:1044900083FFF2E770B504460D4604B10DB9012063
:1044A00070BDAC4201D10020FAE705E0207808B9E0
:1044B0000020F5E7641C6D1C2078FBF757FE0646CC
:1044C0002878FBF753FE8642F0D02078FBF74EFEAB
:1044D00006462878FBF74AFE301AE1E710B56FF080
:1044E0000400FEF723FA0A4800680A49B0FBF1F01D
:1044F000094908700846007800EB4001C1EBC01084
:104500004FF6FF7101EAC0000449088010BD0000A9
:104510000800002000127A00D8090020DA090020E3
:104520000146114A12884A434FF0E0235A610022A3
:104530009A611A46126942F001021A6100BF4FF0F7
:10454000E022106900F001021AB100F48032002A62
:10455000F5D04FF0E022126922F001024FF0E02383
:104560001A6100229A617047DA0900200146114A57
:1045700012784A434FF0E0235A6100229A611A46AA
:10458000126942F001021A6100BF4FF0E022106987
:1045900000F001021AB100F48032002AF5D04FF089
:1045A000E022126922F001024FF0E0231A6100229A
:1045B0009A617047D809002000BF054A128802F0AE
:1045C0004002002AF9D0C2B2014B1B1D1A8070476D
:1045D000003801402E2070472DE9F04105460E4677
:1045E0001746002405B116B90020BDE8F081AC687B
:1045F0005FB100E024688CB1206A78B13046216A4E
:10460000FBF70DFE0028F5D108E000E024682CB18E
:104610003046216AFFF73EFF0028F7D10CB1206A2F
:1046200008B90020E1E72046DFE700002DE9F0416E
:104630000B3020F00706104D19E02068B04215D36A
:10464000B0420AD9871B201DD4F80480FBF794FDE3
:10465000A019C0E90078286004E060682860201D87
:10466000FBF78AFD201D2660BDE8F081251D2C6822
:10467000002CE2D10020F7E7340A00200024FEF7E6
:1046800029F9FDF7C1FBFDF7E7FD01210B48FEF716
:10469000CFFA11E000F046FC0020FCF7F3FC0446E2
:1046A00014B1204600F00EF80548007820B9FCF758
:1046B00053FC012002490870ECE7000000080040AC
:1046C000280A00202DE9F041044600250027204655
:1046D000FFF75AFE054635B916A0FEF7B7FE21468C
:1046E00018A0FEF7B3FE18A12846FFF737FE067D97
:1046F00016A12846FFF732FE0746012E13D115A159
:104700003846FFF72BFE007D1349487113A1384648
:10471000FFF724FE007D10498871012010490870C0
:10472000FEF77EFE00E000BF00BF2846FFF7EAFD6F
:10473000BDE8F0817061727365206661696C2E0A54
:104740000000000025730A00636D640064617461F9
:104750000000000072000000A02D00206700000093
:10476000882D00202DE9F04180460C4600250027C9
:10477000E068B0F57A7F02D30020BDE8F081E06800
:10478000401CE060A1682068405C5B2800D05FE0CE
:10479000A068401CA0602046FFF790FD4CB1D4E912
:1047A0000110884205D2A1682068405C5D2800D1D4
:1047B0003FE01CB1D4E90110884203D3A068401E39
:1047C000A06045E0A068401EA06000BF04F110009A
:1047D000FFF7CDFD064606B93AE015B9354637462E
:1047E00002E03E6077603746A068401CA06020462B
:1047F000FFF764FD2146384600F060FA00B927E073
:104800002046FFF75BFD44B1D4E90110884204D291
:10481000A1682068405C2C28D8D044B1D4E90110AC
:10482000884204D2A1682068405C5D2800D00FE077
:1048300000BFE068401EE06005B16F602020C8F84E
:104840000C00C8F80850A068401CA060012094E744
:1048500015B12846FFF756FD00208EE702460023DB
:10486000002100BF23E0505C302806DB505C392873
:1048700003DC505C3038034415E0505C412806DB13
:10488000505C462803DC505C373803440BE0505C36
:10489000612806DB505C662803DC505C5738034413
:1048A00001E000207047032900D21B01491C0429A4
:1048B000D9D31846F6E700002DE9F04391B08046C1
:1048C0000C4600BF00201090FFF784FE81460025B3
:1048D0000CB1206818B9002011B0BDE8F0830025A4
:1048E0003CE0A16820680844405D342820D00ADC00
:1048F000A0F12B0009282ED2DFE800F0202D212A7C
:104900002D1617181900382816D006DC352810D0B7
:1049100036280FD037281ED10DE039280DD0452874
:104920000FD0652817D10BE000BF00BF00BF00BF4C
:1049300000BF00BF00BF00BF00BF00BF00BF00BF7F
:1049400000BFA16820680844405D0DF8050003E041
:104950000DF8059000E00AE000BF6D1C3F2D05D268
:1049600024B1A068284461688842BAD300BF0020FF
:104970000DF8050010A9684600F092FA06460F46A9
:1049800068461099884201D10020A5E7C8E906676A
:10499000144A154B30463946FBF770FF04D86FF0C8
:1049A0000040C8F8140011E00022104B3046394690
:1049B000FBF74CFF04D84FF00040C8F8140005E0A6
:1049C00030463946FBF722FFC8F814000820C8F823
:1049D0000C00A0686A461099891A0844A06001205A
:1049E0007AE700000000C0FFFFFFDF410000E0C1E8
:1049F0002DE9F04180460C4600260025E068B0F520
:104A00007A7F02D30020BDE8F081E068401CE060BE
:104A100044B1D4E90110884204D2A1682068405C06
:104A20007B2800D07DE0A068401CA0602046FFF7F6
:104A300045FC4CB1D4E90110884205D2A168206838
:104A4000405C7D2800D15DE01CB1D4E901108842B2
:104A500003D3A068401EA06063E0A068401EA06071
:104A600000BF04F11000FFF782FC074607B958E0C9
:104A700016B93E463D4602E02F607D603D46A06887
:104A8000401CA0602046FFF719FC2146284600F094
:104A90004EF800B945E02046FFF710FC286928626F
:104AA0000020286144B1D4E90110884204D2A168F1
:104AB0002068405C3A2800D033E0A068401CA06029
:104AC0002046FFF7FBFB2146284600F0F7F800B927
:104AD00027E02046FFF7F2FB44B1D4E901108842F9
:104AE00004D2A1682068405C2C28BAD044B1D4E933
:104AF0000110884204D2A1682068405C7D2800D063
:104B00000FE000BFE068401EE06006B17560402025
:104B1000C8F80C00C8F80860A068401CA06001201C
:104B200071E716B13046FFF7EDFB00206BE72DE98A
:104B3000F84F80460C46A16820680844461CA168CE
:104B400020680844451C002000900027A1682068C8
:104B5000405C222800D0A6E04FF0000AD1460DE0CC
:104B600028785C2809D1681C2168401A616888424D
:104B700000D398E009F101096D1C6D1C2068281A0A
:104B80006168884202D228782228E9D12068281A50
:104B90006168884202D22878222800D083E0A16888
:104BA00020680844281AA0EB090A0AF101002169CB
:104BB0008847074607B976E0009761E030785C28BF
:104BC00007D016F8010B009908700098401C00905F
:104BD00056E04FF00209A81B012800DA63E0707864
:104BE000662819D008DC222832D02F2832D05C2841
:104BF0002FD0622840D108E06E2814D0722819D036
:104C000074281ED0752837D12BE008200099087031
:104C10000098401C009030E00C200099087000982B
:104C2000401C009029E00A20009908700098401C60
:104C3000009022E00D20009908700098401C009020
:104C40001BE00920009908700098401C009014E0B7
:104C500000BF00BF7078009908700098401C009059
:104C60000BE06A462946304600F0ACF98146B9F1BE
:104C7000000F00D117E000E015E000BF4E4400BF78
:104C8000AE429BD30020009908701020C8F80C0099
:104C9000C8F810702068281AA060A068401CA060A6
:104CA0000120BDE8F88F17B138466169884716B111
:104CB0002068301AA0600020F3E7000070B50546B8
:104CC0000C460CB1206808B9002070BD9CB1A068EA
:104CD000001D616888420ED8A268216888180422E5
:104CE0003FA1FBF7AAFA30B90420E860A068001DD4
:104CF000A0600120E9E79CB1A068401D616888427E
:104D00000ED8A26821688818052237A1FBF795FA0A
:104D100030B90120E860A068401DA0600120D4E700
:104D2000ACB1A068001D6168884210D8A2682168F3
:104D3000881804222EA1FBF780FA40B90220E8600F
:104D400001206861A068001DA0600120BDE76CB172
:104D5000D4E90110884209D2A1682068405C222869
:104D600004D121462846FFF7E2FEAEE7BCB1D4E904
:104D70000110884213D2A1682068405C2D2809D018
:104D8000A1682068405C302809DBA1682068405C8D
:104D9000392804DC21462846FFF78EFD95E76CB1E3
:104DA000D4E90110884209D2A1682068405C5B28E0
:104DB00004D121462846FFF7D5FC86E76CB1D4E93B
:104DC0000110884209D2A1682068405C7B2804D188
:104DD00021462846FFF70CFE77E7002075E7000024
:104DE0006E756C6C0000000066616C7365000000FD
:104DF00074727565000000002DE9F04704008A46D2
:104E000016D054F8047CD4F800903E1F564500D9C3
:104E100056462046FEF752FB054688463246214656
:104E20005046FFF703FC40B1C0F80090BDE8F087A2
:104E3000BDE8F0470846FEF7C5BB44E9017955B126
:104E400029686A18211F8A4202D9611B091F29603B
:104E5000C5F80480EAE7024AC2F80080E6E70000ED
:104E6000340A002010B504461CB1206808B1A068BF
:104E700008B1002010BD7CB1A068001D61688842A7
:104E80000AD2A26821688818032204A1FBF7D5F989
:104E900010B9A068C01CA0602046EBE7EFBBBF00C4
:104EA00000B583B00A460021CDE9001101466846ED
:104EB000FBF7CBFDDDE9000103B000BD10B5FBF74A
:104EC0008DFFFEF755F910BD10B50648FDF780FCC3
:104ED000FEF71CF904480068C0430449C1F8B40156
:104EE00010BD0000882D0020B401224200002242A3
:104EF0000348007810B9012001490870704700008C
:104F0000882D002010B58160054C2468144404608D
:104F10000024C4600BB1426001E00024446010BD75
:104F2000200A002010B50D48046813E00C492068E1
:104F30000968401A00280CDC606818B9204600F0A7
:104F400027F804E006496068096808442060A06802
:104F50008047E468002CE9D110BD00001C0A002045
:104F6000200A002001460948026805E08A4202D171
:104F70004FF0FF307047D268002AF7D1034800682D
:104F8000C860024801600020F4E700001C0A00200D
:104F90000246074808E00168914202D1CB680360ED
:104FA00001E001F10C0000BF01680029F3D1704756
:104FB0001C0A002002480068401C01490860704734
:104FC000200A00202DE9FF5F80468946154600240F
:104FD0000026C24600200390834602900190A9EB70
:104FE0000A00062800DA81E00AF10200FFF736FC29
:104FF0000646B6F55C4F03D3B6F5604F00D275E0B8
:10500000B6F5584F29D3B6F55C4F26D20AF10607FC
:10501000002000900C200290A9EB0700062800DA7F
:1050200064E038785C2802D17878752800D05DE09B
:10503000B81CFFF713FC00900098B0F55C4F03D349
:105040000098B0F5604F00D350E0C6F30901009816
:1050500061F39F2000F5803402E006200290344680
:10506000802C02D20120039018E0B4F5006F04D226
:1050700002200390C020019010E0B4F5803F04D2DC
:1050800003200390E020019008E0B4F5881F04D2CB
:1050900004200390F020019000E027E00398401ED8
:1050A00000F0FF0B0BE004F0BF0040F08000296827
:1050B00001F80B00A409ABF1010000F0FF0BBBF1FC
:1050C000000FF0DC0398012804DD019820432968D3
:1050D000087003E004F07F002968087029680398CD
:1050E00008442860029804B0BDE8F09F0020FAE769
:1050F000014600BF0648C06800F0010018B1081E54
:10510000A1F10101F6D109B9012070470020FCE7A7
:1051100000200240000000004FBB610567ACDD3F8E
:10512000182D4454FB21E93F9BF681D20B73EF3FCE
:10513000182D4454FB21F93FE2652F227F2B7A3C46
:10514000075C143326A6813CBDCBF07A8807703CFF
:10515000075C143326A6913CC4EB98999999C9BF72
:10516000711623FEC671BCBF6D9A74AFF2B0B3BFA7
:105170009AFDDE522DDEADBF2F6C6A2C44B4A2BF67
:105180000D5555555555D53FFF8300922449C23FD3
:105190006E204CC5CD45B73F513DD0A0660DB13F07
:1051A000EB0D76244B7BA93F11DA22E33AAD903F19
:1051B0000000000000000000DDDDDDDDDCBBBBDD4C
:1051C000DDDDDDDDDDDDDDDD9888888888888888A7
:1051D00077777777778888888555555666666666C7
:1051E00066666666666888888333333222222222A6
:1051F000222222222228888D2F62726F61646361CD
:1052000073742F6839736A57594B506E4B412F7422
:105210006573743100000000484D43353838332041
:10522000726567733A2030782578203078257820A9
:10523000307825782030782578203078257820300F
:1052400078257820307825782030782578203078B7
:1052500025782030782578203078257820307825FA
:105260007820307825780D0A000000008C52000864
:1052700000000020400A0000840D00085859000872
:10528000400A002070330000403600084113F851F6
:10529000120884A24A04000A160102030406070841
:1052A000090172F852331C100C0603912C40C0788F
:1052B00003112C043F040321367088FC08302618A3
:1052C00020FF211E14F008F033E0184D211C031EAE
:1052D00011338870000C101E21232419272110106F
:1052E000160E45E018040225071820403D02041858
:1052F000E0692C20180707174080F08040403F02EB
:1053000002010F0102283AF0C41C01011F04912B75
:1053100080B066B1191D2901912A30A5592C14605D
:1053200018043C6018061D1EE010080810721F0FBC
:10533000102020100FF05310F83620203F20203C82
:10534000700808C21E3028242221441E3008888894
:1053500048082E1820202011CC3BC02032270704FB
:1053600024243F241AF8202308084B19212036E072
:10537000108888184B0F11101E380808C8382021D3
:10538000523F1A702E29608F1C222121221C90115D
:105390001D31222211901961CAC0C26A80C6590803
:1053A0001C40201050170102040810204A4001112F
:1053B0004A04012119152A403219251B0402F21B47
:1053C0007048D13AF0501A360F1EC030C828E87025
:1053D00028080718272423140B6F2A387E280D204D
:1053E0003C23020227382008F888889F4B203FF092
:1053F0001BC0303F1B083830191019781B08F80FF4
:10540000194039201B100F103E8888E8081010AC96
:1054100023201810112A035E2940223829402C220B
:105420001E024019A41809F808203F210101212576
:105430002A0852298129424149112EC08080807F4B
:105440000E2FF888C0281808501C0126382F294034
:10545000292F29801B20301012F81AF81413203F2E
:10546000190229204B30C0601A2074123F4BE01003
:10547000B06B0F10B029D01AF030198022017920BA
:105480003F18242438504FC04C888870C0140C300A
:10549000204B7088C11738202121221C3A189F4ABE
:1054A000188239A049D0112A1F90121F2408788829
:1054B0001BC838151C07380E60191A1AF820111469
:1054C000033C0714073C03481408186880806818D8
:1054D0000820302C03032C30200838C82F595029BD
:1054E0008F29102F203826212020681145FE020226
:1054F00002257F4040401A0CE0611C0106380B1960
:105500001D42FE191D527F1A04120211045A800115
:105510001930D91D391621180819242222223F20BA
:10552000AB390F115F3F112020110E21311A0E10DF
:105530004B2011104B88F8102A10B359401A1F3F06
:105540002B22130F16F0888888181A20D029D149E9
:105550007A21176B94949493603960190F4C203F13
:1055600021F354809898793059121AC02719D1190B
:105570003039311F203F24022D30212A0812893072
:1055800069D7294B2903190BC96079A019BF2B20B2
:105590001FDD390F9C80FFA1E0191229D03BA0FF2D
:1055A0000C3950194112208A01C01B3324012A19D9
:1055B0000F3AE0413952290F392349603C103F200E
:1055C0002C29053F010E3008060170291038080FFC
:1055D000300C030C300F2C49A14E312E0E31200C13
:1055E00029621D818E70183059D1215721302C220B
:1055F000213055807C0202443F404072FF39083C14
:1056000002027C8F5440403F4E02010202042F519F
:10561000380908884828180FE80801190F2B0809CD
:10562000013AFF061911151060028C100B446454E6
:105630004D46445464C404200804047E0180403E66
:1056400022FE147E80E019D64BBEAA011ABE0C2998
:10565000A01AAF0C1AFF043AAFFC380D4042445870
:1056600040407F40405048C6887A440129A01F0826
:1056700008E8292E287F1CC80C0B0629B6250949E5
:10568000897F1C0F40800611200A484AFA0AFE0949
:10569000F949A82AF0D2580A22110B04FF04091272
:1056A0002322280E80804020504844C34448502084
:1056B0004071300E40221A0242827F0202020A1218
:1056C0006016FC848484FC2A100124FF10101A3F09
:1056D00009223F4B0106601114F801061EF0121258
:1056E00012F23219D4196321161F1111111F392119
:1056F000244042CC1E445454547F04334440147F0D
:1057000020102FFF15151555954039571B90040192
:105710002AFC05112E0444827F01E7495E111E8098
:10572000828282FE04490619A0558040300F296903
:105730002117080888FF4848370848FF0808F8106C
:105740000C8165080720C0080423C0032B23C42A4A
:105750001FC04040407F48012CC808083F2E370436
:1057600004146403340710E0400C20201008146770
:10577000844424140C19842E02FE4343420129CF91
:105780001F2424A4FE2322741A083F132818180A81
:10579000080601FF0102100C43A0140106181809A5
:1057A000108C4404E40495A640158444940C180914
:1057B00002027A414143427E3F2A4390170484E427
:1057C0005C44C42B02F2C21380801F02017F1010C0
:1057D0003FB71708084888403F2B407C9D100A407F
:1057E000F2121AD61212F202180F908E404F201E9B
:1057F000804F20180710204FF0180E14A4442434B2
:10580000AD6624940444A414F0180B09080809098F
:1058100009FD09090B091208180F1010D0FF901488
:10582000E4AFA4A4A4AFE40470120312FF180B8920
:105830004B2A1A0E1A2A4B8880202A900118091028
:1058400010FF1010111610F01760203F1010102ECE
:10585000030C102040A22A240137FC2222222322FA
:105860002A02013C42827F084302022809F8888C00
:105870008A898888882D414BFF440142FF1C40449F
:10588000C40B3A40602310F0180D103C131014B8EC
:1058900040300E014080DF111033B3B5C1F7C1BFF6
:1058A000B5B1C7B0CAA3D3E0CAB1BCE4C7EBB4F288
:1058B000BFAAC8C8B5E3C3FBB3C6C3DCC2EBC6B559
:1058C000C2CAC4A3CABDCAD6D7D4B6AF60602021AD
:1058D00022232425262728292A2B2C2D2E2F303130
:1058E00032333435363738393A3B3C3D3E3F404120
:1058F00042434445464748494A4B4C4D4E4F505110
:1059000052535455565758595A5B5C5D5E5F6061FF
:1059100062636465666768696A6B6C6D6E6F7071EF
:1059200072737475767778797A7B7C7D7E13A0E0CC
:105930001B08C00401162D01020304049808060781
:1059400008090204062613C5351408BD340C1608D0
:08595000F94D3C5942D90881D0
:0400000508000149A5
:00000001FF
